S00C00006D61696E2E7372656373
S113000058150020CD0700002D0800002D08000021
S113001000000000000000000000000000000000DC
S1130020000000000000000000000000892A000019
S113003000000000000000009D2B0000E32B0000E6
S1130040CD070000CD070000CD070000CD0700005C
S113005000000000CD070000CD070000CD07000020
S1130060CD070000CD070000CD070000CD0700003C
S1130070CD070000CD070000CD070000CD0700002C
S1130080CD070000CD070000CD070000CD0700001C
S1130090CD070000CD070000CD07000000000000E0
S11300A0CD070000CD070000CD070000CD070000FC
S11300B0CD07000000000000CD0700001D06000071
S1130400FFFFFFFFFFFFFFFFFFFFFFFFFEFFFFFFF9
S113041080B582B000AF0200FB1D1A70FB1D1B7873
S11304201A001F23134001229A40034B1A60C0464E
S1130430BD4602B080BDC04600E100E080B500AF1B
S1130440044B03221A70034B00225A70C046BD4667
S113045080BDC0460040064080B500AF174A184B27
S1130460D3581649802212011343154A8B50154B59
S1130470DA68144B802149000A43DA60114BDA68C8
S1130480104B02210A43DA600E4BDA680D4B01214E
S11304900A43DA600B4BDA680A4BA02109030A43CA
S11304A0DA60094B5A69084B08218A435A611F20B4
S11304B0FFF7AEFFC046BD4680BDC0460070044095
S11304C03810000000B0044080F00F4080B500AF49
S11304D0194A1A4BD3581849802212011343174A58
S11304E08B50174B1A6B164B802149000A431A6331
S11304F0134B1A6B124B02210A431A63104B1A6BEB
S11305000F4B01210A431A630D4B1A6B0C4B8021CC
S113051049040A431A630A4B1A6B094BA0210903C5
S11305200A431A63074B5A69064B07490A405A6142
S1130530C046BD4680BDC04600700440381000006F
S113054000B0044080F00F40FFEFFFFF80B500AF24
S11305500E4A88235B010021D1500C4A0C4BD3581E
S11305600A49802252011343094A8B50094B8022C5
S113057052005A61084B5A69074B20210A435A61B9
S1130580054B20225A60C046BD4680BD0070044021
S11305903810000000C00440C0F00F4080B500AF28
S11305A0024B2022DA60C046BD4680BDC0F00F4039
S11305B080B500AF0F4A88235B010021D1500D4A5A
S11305C00D4BD3580B498022920113430A4A8B5096
S11305D00A4B802252005A67094B5A69084B802102
S11305E089050A435A61064B802292055A60C04627
S11305F0BD4680BD007004403810000000D00440A7
S113060000F10F4080B500AF034B80229205DA6001
S1130610C046BD4680BDC04600F10F4080B582B0E3
S113062000AF124BDB681A0EFB1D511E8A411A7073
S11306300E4B1B6B1A0EBB1D511E8A411A700C4BBC
S1130640180002F063FD094B1A6B084B8021490422
S11306500A431A63054BDA68044B802149040A43B0
S1130660DA60C046BD4602B080BDC04600B004405A
S1130670E703000080B584B000AF7860FFF78EFF19
S1130680184B1A68184B1B689A4218DA154B1B68EA
S1130690164AD25C164B1A70124B1B685A1C114B2B
S11306A01A60134BFB60134B1B68002B07D0114BD4
S11306B0186801235A42F968002300F09BFA0D4B95
S11306C01B68180000F068FD03001A000A4B1A604A
S11306D0094B1B689BB2180002F018FDC82001F0FA
S11306E04FF8CBE71CE0FF1F20E0FF1F00E0FF1FD7
S11306F024E0FF1F28E0FF1F2CE0FF1F80B582B01D
S113070000AF7860642001F03BF8FFF77BFF044BF7
S1130710186801235A420349002300F0DBFBF4E785
S113072028E0FF1F25E0FF1F80B584B004AF1E4BF7
S113073000221A601D4B00221A601D4B180002F0A3
S113074019FF03001A001B4B1A60FFF777FE02F033
S113075073FAFFF7FBFEFFF72BFF002201211420A1
S113076000F067F90200144B1A601449144800237E
S11307700393002302930023019302230093002395
S1130780502200F0E7FE0F490F4800230393002393
S1130790029300230193012300930023502200F0CD
S11307A0D9FE01F021F8FEE71CE0FF1F2CE0FF1F3B
S11307B000E0FF1F20E0FF1F28E0FF1FD0350000EE
S11307C075060000DC350000FD06000080B582B02F
S11307D000AF114B7B60114B3B6007E07A68131D3F
S11307E07B603B68191D396012681A603A680C4BCB
S11307F09A42F3D30B4B3B6004E03B681A1D3A600A
S113080000221A603A68084B9A42F6D3FFF78CFF2D
S1130810C046BD4602B080BD6836000000E0FF1F40
S11308201CE0FF1F1CE0FF1F5811002080B500AF23
S1130830FEE7C04680B582B000AF78607B680833BD
S11308401A007B685A607B68012252429A607B6876
S113085008331A007B68DA607B6808331A007B6807
S11308601A617B6800221A60C046BD4602B080BD92
S113087080B582B000AF78607B6800221A61C04600
S1130880BD4602B080BD80B584B000AF78603960E9
S11308907B685B68FB603B68FA685A60FB689A682F
S11308A03B689A60FB689B683A685A60FB683A68E0
S11308B09A603B687A681A617B681B685A1C7B687B
S11308C01A60C046BD4604B080BD80B584B000AF98
S11308D0786039603B681B68BB60BB68013303D137
S11308E07B681B69FB600CE07B680833FB6002E0FB
S11308F0FB685B68FB60FB685B681B68BA689A42CC
S1130900F6D2FB685A683B685A603B685B683A6891
S11309109A603B68FA689A60FB683A685A603B6878
S11309207A681A617B681B685A1C7B681A60C04627
S1130930BD4604B080BD80B584B000AF78607B68EC
S11309401B69FB607B685B687A6892689A607B6865
S11309509B687A6852685A60FB685B687A689A4256
S113096003D17B689A68FB685A607B6800221A612D
S1130970FB681B685A1EFB681A60FB681B6818003A
S1130980BD4604B080BD000080B584B000AF78607F
S113099039607B68FB60FB68002B01D172B6FEE70F
S11309A002F0C8F8FB681A68FB68D96BFB681B6C1B
S11309B04B43D218FB685A60FB6800229A63FB68B9
S11309C01A68FB689A60FB681A68FB68DB6B591E3F
S11309D0FB681B6C4B43D218FB68DA60FB6801228E
S11309E052425A64FB68012252429A643B68002BCB
S11309F00ED1FB681B69002B14D0FB681033180060
S1130A0001F05AF90300012B0CD102F083F809E03C
S1130A10FB6810331800FFF70DFFFB682433180040
S1130A20FFF708FF02F098F801231800BD4604B050
S1130A3080BD80B588B000AFF860B960FB1D1A7046
S1130A400023BB61FB68002B01D172B6FEE7BB68D3
S1130A50002B02D10023FB6104E0FB68BA68534316
S1130A600133FB61FB694C33180001F0D9FE03002C
S1130A707B617B69002B18D0BB68002B03D17B6999
S1130A807A691A6004E07B694C331A007B691A6046
S1130A907B69FA68DA637B69BA681A647B69012145
S1130AA01800FFF771FF7B69BB61BB69002B01D1A3
S1130AB072B6FEE7BB691800BD4608B080BD80B5BC
S1130AC084B000AF0200FB1D1A704C2001F0A8FE98
S1130AD00300FB60FB68002B2CD0FB6800225A60EB
S1130AE0FB6800221A60FB6800229A60FB680022FF
S1130AF0DA60FB6800229A63FB680122DA63FB6810
S1130B0000221A64FB68012252425A64FB680122E3
S1130B1052429A64FB6810331800FFF78BFEFB689F
S1130B2024331800FFF786FEF86800230022002112
S1130B3000F060F8FB681800BD4604B080BD90B5B5
S1130B4085B000AF78607B68BB60BB68002B01D1C7
S1130B5072B6FEE7BB685C6801F0FAFA03009C42D7
S1130B6011D1BB68DB685A1EBB68DA60BB68DB68FE
S1130B70002B05D1B86800230022002100F03AF8C8
S1130B800123FB6001E00023FB60FB681800BD4605
S1130B9005B090BD90B585B000AF786039607B68D2
S1130BA0BB60BB68002B01D172B6FEE7BB685C6812
S1130BB001F0CEFA03009C4207D1BB68DB685A1CE3
S1130BC0BB68DA600123FB600FE03A68B868002371
S1130BD0002100F07FF90300FB60FB68012B04D1C6
S1130BE0BB68DB685A1CBB68DA60FB681800BD464A
S1130BF005B090BD80B58AB000AFF860B9607A6086
S1130C003B6000237B62FB683B623B6A002B01D1A3
S1130C1072B6FEE7BB68002B03D13B6A1B6C002B4A
S1130C2001D1012300E00023002B01D172B6FEE7BD
S1130C303B68022B03D13B6ADB6B012B01D10123FF
S1130C4000E00023002B01D172B6FEE701F072FF31
S1130C503B6A9A6B3B6ADB6B9A4202D33B68022B7A
S1130C601FD13A68B9683B6A180000F0ECFA030037
S1130C70FB613B6A5B6A002B0AD03B6A2433180091
S1130C8001F01AF80300012B07D101F043FF04E03F
S1130C90FB69002B01D001F03DFF01F05DFF012352
S1130CA055E07B68002B03D101F056FF00234EE092
S1130CB07B6A002B06D11423FB18180001F0B0F84E
S1130CC001237B6201F048FF00F0D4FD01F032FF04
S1130CD03B6A5B6C013302D13B6A00225A643B6A73
S1130CE09B6C013302D13B6A00229A6401F034FF09
S1130CF03A1D1423FB181100180001F0ABF8031E71
S1130D001ED13B6A180000F0A7FB031E11D03B6AFA
S1130D1010337A681100180000F06AFF3B6A18006B
S1130D2000F023FB00F0B2FD031E8FD101F0F2FEB0
S1130D308CE73B6A180000F018FB00F0A7FD85E77C
S1130D403B6A180000F011FB00F0A0FD002318001E
S1130D50BD460AB080BD80B588B000AFF860B96008
S1130D607A603B60FB68BB61BB69002B01D172B642
S1130D70FEE7BB68002B03D1BB691B6C002B01D1C0
S1130D80012300E00023002B01D172B6FEE73B688B
S1130D90022B03D1BB69DB6B012B01D1012300E0E2
S1130DA00023002B01D172B6FEE701F0EDFE030033
S1130DB07B61BB699A6BBB69DB6B9A4202D33B686C
S1130DC0022B23D13A68B968BB69180000F03BFADA
S1130DD0BB699B6C013311D1BB695B6A002B12D0D8
S1130DE0BB692433180000F067FF031E0BD07B6837
S1130DF0002B08D07B6801221A6004E0BB699B6C5D
S1130E005A1CBB699A640123FB6101E00023FB6166
S1130E107B69180001F0BEFEFB691800BD4608B0EE
S1130E2080BD80B586B000AF786039607B683B6177
S1130E303B69002B01D172B6FEE73B691B6C002BAA
S1130E4001D072B6FEE73B691B68002B03D13B69F6
S1130E505B68002B01D1012300E00023002B01D1AA
S1130E6072B6FEE701F090FE0300FB603B699A6BEB
S1130E703B69DB6B9A4222D23B699B6B5A1C3B69F0
S1130E809A633B699B6C013311D13B695B6A002B0C
S1130E9012D03B692433180000F00EFF031E0BD060
S1130EA03B68002B08D03B6801221A6004E03B69D0
S1130EB09B6C5A1C3B699A6401237B6101E000230B
S1130EC07B61FB68180001F065FE7B691800BD4674
S1130ED006B080BD80B58AB000AFF860B9607A60B2
S1130EE03B6000237B62FB683B623B6A002B01D1C1
S1130EF072B6FEE7BB68002B03D13B6A1B6C002B68
S1130F0001D1012300E00023002B01D172B6FEE7DA
S1130F1001F010FE3B6A9B6B002B3CD03B6ADB6804
S1130F20FB61BA683B6A1100180000F0F8F93B68ED
S1130F30002B1CD13B6A9B6B5A1E3B6A9A633B6A2B
S1130F401B68002B04D101F0E1F902003B6A5A60EE
S1130F503B6A1B69002B1AD03B6A1033180000F05F
S1130F60ABFE0300012B12D101F0D4FD0FE03B6A6C
S1130F70FA69DA603B6A5B6A002B08D03B6A243367
S1130F80180000F099FE031E01D001F0C3FD01F02A
S1130F90E3FD012363E07B68002B03D101F0DCFD5A
S1130FA000235CE07B6A002B06D11423FB18180095
S1130FB000F036FF01237B6201F0CEFD00F05AFC05
S1130FC001F0B8FD3B6A5B6C013302D13B6A00223D
S1130FD05A643B6A9B6C013302D13B6A00229A64D7
S1130FE001F0BAFD3A1D1423FB181100180000F09B
S1130FF031FF031E2CD13B6A180000F000FA031ED7
S11310001FD03B6A1B68002B08D101F093FD3B6A9B
S11310105B68180001F0AAF801F09EFD3B6A2433D6
S11310207A681100180000F0E3FD3B6A180000F034
S11310309CF900F02BFC031E00D069E701F06AFD67
S113104066E73B6A180000F090F900F01FFC5FE7C8
S11310503B6A180000F089F900F018FC002318001E
S1131060BD460AB080BD80B588B000AFF860B960F5
S11310707A60FB68BB61BB69002B01D172B6FEE7E5
S1131080BB68002B03D1BB691B6C002B01D101236E
S113109000E00023002B01D172B6FEE701F074FDDD
S11310A003007B61BB699B6B002B28D0BA68BB69CA
S11310B01100180000F033F9BB699B6B5A1EBB6921
S11310C09A63BB695B6C013311D1BB691B69002B4B
S11310D012D0BB691033180000F0EEFD031E0BD0D4
S11310E07B68002B08D07B6801221A6004E0BB698E
S11310F05B6C5A1CBB695A640123FB6101E0002349
S1131100FB617B69180001F045FDFB691800BD46D1
S113111008B080BD80B586B000AF786039607B6868
S11311203B613B69002B01D172B6FEE73B68002BA3
S113113003D13B691B6C002B01D1012300E0002388
S1131140002B01D172B6FEE73B691B6C002B01D169
S113115072B6FEE701F018FD0300FB603B699B6B70
S1131160002B0ED03B69DB68BB603A683B69110019
S1131170180000F0D4F83B69BA68DA6001237B6197
S113118001E000237B61FB68180001F003FD7B692B
S11311901800BD4606B080BD80B584B000AF78604D
S11311A07B68002B01D172B6FEE701F0C3FC7B68BB
S11311B09B6BFB6001F0D0FCFB681800BD4604B0DB
S11311C080BD80B584B000AF78607B68FB60FB684D
S11311D0002B01D172B6FEE701F0ACFCFB68DA6BC0
S11311E0FB689B6BD31ABB6001F0B6FCBB681800AC
S11311F0BD4604B080BD80B584B000AF78607B6824
S1131200002B01D172B6FEE77B689B6BFB60FB6829
S11312101800BD4604B080BD80B584B000AF7860CE
S11312207B68FB60FB68002B01D172B6FEE7FB68AC
S1131230180000F06BF9FB68180001F07FFBC04652
S1131240BD4604B080BD80B586B000AFF860B9601B
S11312507A6000237B61FB681B6C002B0ED1FB685A
S11312601B68002B51D1FB685B68180000F0DCFFA1
S113127003007B61FB6800225A6046E07B68002B18
S113128019D1FB689868FB681A6CBB68190002F0F6
S11312901FF9FB689A68FB681B6CD218FB689A609C
S11312A0FB689A68FB685B689A422ED3FB681A68ED
S11312B0FB689A6029E0FB68D868FB681A6CBB6815
S11312C0190002F005F9FB68DA68FB681B6C5B42E5
S11312D0D218FB68DA60FB68DA68FB681B689A421C
S11312E007D2FB685A68FB681B6C5B42D218FB6828
S11312F0DA607B68022B08D1FB689B6B002B04D05F
S1131300FB689B6B5A1EFB689A63FB689B6B5A1CB9
S1131310FB689A637B691800BD4606B080BD80B542
S113132082B000AF786039607B681B6C002B18D0EA
S11313307B68DA687B681B6CD2187B68DA607B6830
S1131340DA687B685B689A4203D37B681A687B68B7
S1131350DA607B68D9687B681A6C3B68180002F015
S1131360B7F8C046BD4602B080BD80B582B000AFBC
S1131370786001F0DFFB11E07B685B6A002B12D020
S11313807B682433180000F097FC031E01D000F0A2
S1131390A9FD7B689B6C5A1E7B689A647B689B6C76
S11313A0002BE9DC00E0C0467B68012252429A64CB
S11313B001F0D2FB01F0BEFB11E07B681B69002B3E
S11313C012D07B681033180000F076FC031E01D0A5
S11313D000F088FD7B685B6C5A1E7B685A647B68EE
S11313E05B6C002BE9DC00E0C0467B6801225242C2
S11313F05A6401F0B1FBC046BD4602B080BD80B561
S113140084B000AF786001F095FB7B689B6B002B88
S113141002D10123FB6001E00023FB6001F09CFB8F
S1131420FB681800BD4604B080BD80B584B000AF31
S113143078607B68002B01D172B6FEE77B689B6BFA
S1131440002B02D10123FB6001E00023FB60FB6859
S11314501800BD4604B080BD80B584B000AF78608C
S113146001F068FB7B689A6B7B68DB6B9A4202D164
S11314700123FB6001E00023FB6001F06DFBFB68CE
S11314801800BD4604B080BD80B584B000AF78605C
S11314907B68002B01D172B6FEE77B689A6B7B6890
S11314A0DB6B9A4202D10123FB6001E00023FB6065
S11314B0FB681800BD4604B080BD80B584B000AFA1
S11314C0786039600023FB6015E00F4BFA68D200A6
S11314D0D358002B0CD10C4BFA68D2003968D15088
S11314E0094AFB68DB00D31804337A681A6006E003
S11314F0FB680133FB60FB68072BE6D9C046C04696
S1131500BD4604B080BDC04630E0FF1F80B584B046
S113151000AF78600023FB6011E00D4AFB68DB003C
S1131520D31804331B687A689A4205D1084BFA68C9
S1131530D2000021D15006E0FB680133FB60FB6858
S1131540072BEAD9C046C046BD4604B080BDC0469C
S113155030E0FF1F90B58BB002AFF860B9603B601C
S1131560BB1D1A80FB68002B01D172B6FEE73B6BF2
S1131570042B01D972B6FEE7BA6BBB1D1B881100A0
S1131580180000F093FD0300BB61BB69002B00D180
S113159070E0BB691A6BBB1D1B8842498C466344CF
S11315A09B00D3187B617B69072293437B617B6932
S11315B00722134001D072B6FEE7FC6B3A6BB968A0
S11315C0B869BB1D1B880093230000F0A5FC3A6892
S11315D0F9687B69180001F021FA0200BB691A60FE
S11315E07B6B002B02D07B6BBA691A6001F0A2FA04
S11315F02D4B1B685A1C2C4B1A602C4B1B68002B60
S113160009D12A4BBA691A60274B1B68012B0FD1E9
S113161000F0D7FC0CE0264B1B68002B08D1234BB1
S11316201B68DB6A3A6B9A4202D3204BBA691A6090
S1131630204B1B685A1C1F4B1A60BB69DA6A1E4B8D
S11316401B689A4203D9BB69DA6A1B4B1A60BB69EF
S1131650DA6A13009B009B189B00184A9A18BB690E
S1131660043319001000FFF70EF90123FB6101F0A8
S113167073FA02E001235B42FB61FB69012B0BD18E
S11316800B4B1B68002B07D0084B1B68DB6A3A6BBB
S11316909A4201D901F03EFAFB691800BD4609B02F
S11316A090BDC046FFFFFF3F1CE1FF1F70E0FF1F1E
S11316B028E1FF1F38E1FF1F24E1FF1F74E0FF1F33
S11316C080B586B000AF7860396000237B617B68A9
S11316D0002B01D172B6FEE73B68002B01D172B634
S11316E0FEE7244B1B68002B01D072B6FEE700F026
S11316F0C1F8214B1B683B617B681B683A68D318AF
S1131700FB607B681B683A699A420BD27B681B6852
S1131710FA689A4211D2FA683B699A420DD90123B8
S11317207B610AE07B681B68FA689A4203D3FA6813
S11317303B699A4201D901237B617B68FA681A608C
S11317407B69002B09D00D4B1B6804331800FFF78D
S1131750F2F8FB68180000F072FC00F097F8030040
S1131760BB60BB68002B01D101F0D4F9C046BD4673
S113177006B080BD40E1FF1F20E1FF1F70E0FF1FA6
S113178080B584B000AF78600023FB607B68002BD9
S11317901AD0124B1B68002B01D072B6FEE700F082
S11317A069F80F4B1B687A68D318BB600D4B1B6834
S11317B004331800FFF7BFF8BB68180000F03FFCC3
S11317C000F064F80300FB60FB68002B01D101F01A
S11317D0A1F9C046BD4604B080BDC04640E1FF1F2C
S11317E020E1FF1F70E0FF1F80B586B004AF1549EC
S11317F0154800230393002302930023019300233D
S1131800009300235022FFF7A5FE03007B607B6852
S1131810012B0DD172B60D4B012252421A600C4BB2
S113182001221A600B4B00221A6001F042F904E015
S11318307B68002B01D172B6FEE7C046BD4602B0FC
S113184080BDC046E8350000F91E00003CE1FF1FE2
S113185028E1FF1F20E1FF1F80B500AF72B6044BE3
S113186000221A6001F046F9C046BD4680BDC0465C
S113187028E1FF1F80B500AF034B1B685A1C024BC5
S11318801A60C046BD4680BD40E1FF1F80B582B0EE
S113189000AF00237B60374B1B68002B01D172B66D
S11318A0FEE701F047F9334B1B685A1E314B1A60AF
S11318B0304B1B68002B55D12F4B1B68002B51D08C
S11318C02FE02E4BDB68DB683B603B681833180065
S11318D0FFF731F83B6804331800FFF72CF83B6836
S11318E0DA6A274B1B689A4203D93B68DA6A244BAD
S11318F01A603B68DA6A13009B009B189B00214A1C
S11319009A183B68043319001000FEF7BCFF3B68CB
S1131910DA6A1D4B1B68DB6A9A4202D31B4B012215
S11319201A60164B1B68002BCBD1194B1B68002B7C
S113193010D00BE000F056F8031E02D0134B012226
S11319401A60134B1B685A1E114B1A60104B1B680C
S1131950002BEFD10D4B1B68012B03D101237B60BE
S113196001F0D8F801F0F8F87B681800BD4602B021
S113197080BDC04640E1FF1F1CE1FF1F08E1FF1FBF
S113198024E1FF1F74E0FF1F70E0FF1F30E1FF1F21
S11319902CE1FF1F80B582B000AF044B1B687B6055
S11319A07B681800BD4602B080BDC04620E1FF1F21
S11319B080B582B000AF00237B60044B1B683B60A2
S11319C03B681800BD4602B080BDC04620E1FF1F41
S11319D080B500AF024B1B681800BD4680BDC046F1
S11319E01CE1FF1F80B586B000AF00237B614D4B27
S11319F01B68002B00D084E04B4B1B685A1C4A4BDD
S1131A001A60494B1B683B613B69002B17D1474B5C
S1131A101B681B68002B01D072B6FEE7434B1B68A2
S1131A20FB60434B1A68414B1A60414BFA681A60D9
S1131A30404B1B685A1C3F4B1A6000F066FB3E4B40
S1131A401B683A699A424ED3384B1B681B68002BBB
S1131A5001D1012300E00023002B04D0364B0122E6
S1131A6052421A603FE0314B1B68DB68DB68BB60A5
S1131A70BB685B687B603A697B689A4203D22E4BF1
S1131A807A681A602FE0BB6804331800FEF753FF2E
S1131A90BB689B6A002B04D0BB6818331800FEF7A0
S1131AA04AFFBB68DA6A254B1B689A4203D9BB68B4
S1131AB0DA6A224B1A60BB68DA6A13009B009B182F
S1131AC09B001F4A9A18BB68043319001000FEF7E4
S1131AD0DAFEBB68DA6A1B4B1B68DB6A9A42B3D333
S1131AE001237B61B0E7174B1B68DA6A14491300C2
S1131AF09B009B189B005B58012B07D901237B613A
S1131B0004E0114B1B685A1C0F4B1A600F4B1B68E7
S1131B10002B01D001237B617B691800BD4606B010
S1131B2080BDC04640E1FF1F20E1FF1F00E1FF1F11
S1131B3004E1FF1F34E1FF1F3CE1FF1F24E1FF1F0D
S1131B4074E0FF1F70E0FF1F2CE1FF1F30E1FF1F57
S1131B5080B582B000AF214B1B68002B03D0204B13
S1131B6001221A6036E01E4B00221A600AE01D4B67
S1131B701B68002B01D172B6FEE71A4B1B685A1E74
S1131B80184B1A60174B1A68174913009B009B18CF
S1131B909B005B58002BEAD0124B1A6813009B0081
S1131BA09B189B00104A9B187B607B685B685A6893
S1131BB07B685A607B685A687B6808339A4204D110
S1131BC07B685B685A687B685A607B685B68DA6824
S1131BD0064B1A60C046BD4602B080BD40E1FF1FFF
S1131BE030E1FF1F24E1FF1F74E0FF1F70E0FF1FBF
S1131BF080B584B000AF786039607B68002B01D178
S1131C0072B6FEE70D4B1B6818331A007B6811008F
S1131C101800FEF75AFE094B1B6804331800FEF740
S1131C208AFE074B1B683A68D318FB60FB681800F0
S1131C3000F005FAC046BD4604B080BD70E0FF1F49
S1131C4020E1FF1F80B586B000AFF860B9607A600C
S1131C50FB68002B01D172B6FEE7144B1B68002B06
S1131C6001D172B6FEE7124B1B68BA6880210906DF
S1131C700A439A610E4B1B6818331A00FB68110063
S1131C801800FEF700FE0A4B1B6804331800FEF729
S1131C9052FE084B1B687A68D3187B617B69180075
S1131CA000F0CDF9C046BD4606B080BD40E1FF1F3F
S1131CB070E0FF1F20E1FF1F80B584B000AF7860A3
S1131CC07B68DB68DB68BB60BB68002B01D172B644
S1131CD0FEE7BB6818331800FEF72DFE1E4B1B6889
S1131CE0002B1DD1BB6804331800FEF724FEBB682B
S1131CF0DA6A1A4B1B689A4203D9BB68DA6A174B33
S1131D001A60BB68DA6A13009B009B189B00144A94
S1131D109A18BB68043319001000FEF7B4FD07E0FD
S1131D20BB6818331A000F4B11001800FEF7ABFD07
S1131D30BB68DA6A0C4B1B68DB6A9A4205D901233B
S1131D40FB600A4B01221A6001E00023FB60FB6880
S1131D501800BD4604B080BD40E1FF1F24E1FF1F11
S1131D6074E0FF1F08E1FF1F70E0FF1F30E1FF1F59
S1131D7080B584B000AF78603960244B1B68002BB9
S1131D8001D172B6FEE73B68802212061A437B68D3
S1131D901A607B68DB68BB60BB68002B01D172B63C
S1131DA0FEE77B681800FEF7C6FDBB680433180025
S1131DB0FEF7C1FDBB68DA6A154B1B689A4203D96A
S1131DC0BB68DA6A124B1A60BB68DA6A13009B00BC
S1131DD09B189B000F4A9A18BB6804331900100023
S1131DE0FEF751FDBB68DA6A0B4B1B68DB6A9A424B
S1131DF005D90123FB60094B01221A6001E000238D
S1131E00FB60FB681800BD4604B080BD40E1FF1FC5
S1131E1024E1FF1F74E0FF1F70E0FF1F30E1FF1F8C
S1131E2080B582B000AF78607B68002B01D172B6B8
S1131E30FEE7064B1A687B681A60054B1A687B68D4
S1131E405A60C046BD4602B080BDC04634E1FF1FA3
S1131E5020E1FF1F80B584B000AF786039607B68F3
S1131E60002B01D172B6FEE73B68002B01D172B69C
S1131E70FEE700F05FFE194B1B68BB607B681A68C5
S1131E80174B1B689A4207D07B685B68BA689A4212
S1131E9002D30123FB6019E07B685B68BA68D21A3D
S1131EA03B681B689A420FD23B681A687B68596882
S1131EB0BB68CB1AD2183B681A607B681800FFF71E
S1131EC0AFFF0023FB6001E00123FB6000F044FE50
S1131ED0FB681800BD4604B080BDC04620E1FF1F6A
S1131EE034E1FF1F80B500AF024B01221A60C046E7
S1131EF0BD4680BD30E1FF1F80B582B000AF786081
S1131F0000F098F8034B1B68012BF9D900F002FE8E
S1131F10F6E7C04674E0FF1F80B586B000AFF860F6
S1131F20B9607A603B6000237B6113E0BA687B6927
S1131F30D3181878FA6834217B69D3185B18021C0B
S1131F401A70BA687B69D3181B78002B06D07B699A
S1131F5001337B617B69092BE8D900E0C046FB684B
S1131F603D22002199547B68042B01D904237B6012
S1131F70FB687A68DA62FB687A681A64FB68002294
S1131F805A64FB6804331800FEF772FCFB681833CC
S1131F901800FEF76DFCFB68FA681A617B6805227D
S1131FA0D21AFB689A61FB68FA685A62FB680022DD
S1131FB09A64FB684C2200219954C046BD4606B081
S1131FC080BD80B582B000AF00237B600CE07A68EE
S1131FD013009B009B189B00104A9B181800FEF7E7
S1131FE029FC7B6801337B607B68042BEFD90C4BA5
S1131FF01800FEF71FFC0B4B1800FEF71BFC0A4BE6
S11320001800FEF717FC094B054A1A60084B054AED
S11320101A60C046BD4602B080BDC04674E0FF1FD2
S1132020D8E0FF1FECE0FF1F08E1FF1F00E1FF1FE6
S113203004E1FF1F80B500AFC046BD4680BD80B53A
S113204082B000AF7860144B1B687A685A60134BF7
S11320501B687A689A4209D2114B1A680E4B1B68A6
S1132060043319001000FEF730FC10E00D4B1A6821
S1132070094B1B68043319001000FEF726FC0A4BB9
S11320801B687A689A4202D2074B7A681A60C04683
S1132090BD4602B080BDC04670E0FF1F20E1FF1FB7
S11320A004E1FF1F00E1FF1F3CE1FF1F80B584B086
S11320B000AF02003960BB1D1A803B68002B07D1BA
S11320C0BB1D1B889B00180000F0AAFB030000E066
S11320D03B68BB60BB68002B10D0502000F0A0FB15
S11320E00300FB60FB68002B03D0FB68BA681A632B
S11320F006E0BB68180000F021FC01E00023FB604F
S1132100FB681800BD4604B080BD80B582B000AF46
S11321100D4B1B681B68002B01D1012300E0002339
S1132120002B04D0094B012252421A6008E0064BEE
S11321301B68DB68DB687B607B685A68034B1A604A
S1132140C046BD4602B080BD00E1FF1F3CE1FF1F59
S113215080B582B000AF044B1B687B607B681800BD
S1132160BD4602B080BDC04670E0FF1F80B584B09C
S113217000AF78607B68FB607B68002B4AD0FB680B
S1132180DA6A264B1B68DB6A9A4243D2FB689B6976
S1132190002B06DB214B1B68DB6A0522D21AFB6885
S11321A09A61FB685969FB68DA6A13009B009B1803
S11321B09B001B4A9B18994201D1012300E0002394
S11321C0002B22D0FB6804331800FEF7B4FB134B3A
S11321D01B68DA6AFB68DA62FB68DA6A114B1B680F
S11321E09A4203D9FB68DA6A0E4B1A60FB68DA6A12
S11321F013009B009B189B00094A9A18FB68043340
S113220019001000FEF73FFB04E0044B1B68DA6A78
S1132210FB68DA62C046BD4604B080BD70E0FF1FB3
S113222074E0FF1F24E1FF1F80B584B000AF786025
S11322307B68BB600023FB607B68002B44D0254B8C
S11322401B68BA689A4201D072B6FEE7BB685B6C41
S1132250002B01D172B6FEE7BB685B6C5A1EBB68EB
S11322605A64BB68DA6ABB681B6C9A422CD0BB68A0
S11322705B6C002B28D1BB6804331800FEF75BFBB2
S1132280BB681A6CBB68DA62BB68DB6A0522D21AC7
S1132290BB689A61BB68DA6A0F4B1B689A4203D920
S11322A0BB68DA6A0C4B1A60BB68DA6A13009B00DD
S11322B09B189B00094A9A18BB6804331900100044
S11322C0FEF7E1FA0123FB60FB681800BD4604B089
S11322D080BDC04670E0FF1F24E1FF1F74E0FF1FB4
S11322E080B582B000AF084B1B689B697B60064BCE
S11322F01B68DA6A044B1B6805218A1A9A617B6899
S11323001800BD4602B080BD70E0FF1F80B500AF6D
S1132310064B1B68002B04D0044B1B685A6C01321B
S11323205A64024B1B681800BD4680BD70E0FF1F55
S113233080B584B000AF7860396000F0FBFB214BBE
S11323401B689B6C002B18D11E4B1B684C2201216F
S113235099543B68002B10D01A4B1B6804331800A7
S1132360FEF7E9FA184B1B683A68D318FB60FB6860
S11323701800FFF764FE00F0CDFB00F0EDFB00F069
S1132380D9FB104B1B689B6CBB60BB68002B0CD04B
S11323907B68002B04D00B4B1B6800229A6404E07A
S11323A0084B1B689A6C013A9A64064B1B684C22D2
S11323B00021995400F0D0FBBB681800BD4604B05E
S11323C080BDC04670E0FF1F20E1FF1F80B586B0CE
S11323D000AFF860B9607A603B6000F0ABFB294B5A
S11323E01B684C229B5CDBB2022B1FD0254B1B6865
S11323F09A6CF968C9430A409A64224B1B684C22C0
S1132400012199543B68002B10D01E4B1B680433E8
S11324101800FEF790FA1C4B1B683A68D3183B610E
S11324203B691800FFF70BFE00F074FB00F094FB0F
S113243000F080FB7B68002B04D0124B1B689A6C65
S11324407B681A600F4B1B684C229B5CDBB2012B30
S113245002D100237B6108E00A4B1B689A6CB968BF
S1132460C9430A409A6401237B61064B1B684C22D2
S11324700021995400F070FB7B691800BD4606B03A
S113248080BDC04670E0FF1F20E1FF1F80B588B00B
S113249000AFF860B9603B60FB1D1A700123FB615B
S11324A0FB68002B01D172B6FEE7FB68BB6100F04C
S11324B041FB3B68002B03D0BB699A6C3B681A60F4
S11324C01723FB18BA694C21525C1A70BB694C2261
S11324D002219954FB1D1B78042B22D89A002D4B02
S11324E0D3181B689F46BB699A6CBB681A43BB69C7
S11324F09A6416E0BB699B6C5A1CBB699A6410E031
S1132500BB69BA689A640CE01723FB181B78022B8A
S113251003D0BB69BA689A6403E00023FB6100E05E
S1132520C0461723FB181B78012B2BD1BB6904333E
S11325301800FEF700FABB69DA6A174B1B689A4267
S113254003D9BB69DA6A144B1A60BB69DA6A1300EF
S11325509B009B189B00114A9A18BB69043319000D
S11325601000FEF790F9BB699B6A002B01D072B68C
S1132570FEE7BB69DA6A0A4B1B68DB6A9A4201D937
S113258000F0C8FA00F0E8FAFB691800BD4608B08C
S113259080BDC046F035000024E1FF1F74E0FF1F3A
S11325A070E0FF1F80B588B000AFF860B9603B6091
S11325B0FB1D1A700123FB61FB68002B01D172B66D
S11325C0FEE7FB68BB6100F0DFFA03007B613B6858
S11325D0002B03D0BB699A6C3B681A601323FB1869
S11325E0BA694C21525C1A70BB694C22022199547D
S11325F0FB1D1B78042B22D89A00364BD3181B687A
S11326009F46BB699A6CBB681A43BB699A6416E01F
S1132610BB699B6C5A1CBB699A6410E0BB69BA68BD
S11326209A640CE01323FB181B78022B03D0BB69BC
S1132630BA689A6403E00023FB6100E0C0461323F8
S1132640FB181B78012B3CD1BB699B6A002B01D082
S113265072B6FEE7204B1B68002B1DD1BB69043307
S11326601800FEF768F9BB69DA6A1C4B1B689A42CA
S113267003D9BB69DA6A194B1A60BB69DA6A1300B9
S11326809B009B189B00164A9A18BB6904331900D7
S11326901000FEF7F8F807E0BB6918331A00114B75
S11326A011001800FEF7EFF8BB69DA6A0E4B1B68DD
S11326B0DB6A9A4205D9BB6A002B02D0BB6A0122AD
S11326C01A607B69180000F065FAFB691800BD46C2
S11326D008B080BD0436000040E1FF1F24E1FF1F65
S11326E074E0FF1F08E1FF1F70E0FF1F80B586B094
S11326F000AF786039607B68002B01D172B6FEE7C9
S11327007B687B6100F040FA03003B610F203B18BB
S11327107A694C21525C1A707B694C2202219954CB
S11327207B699B6C5A1C7B699A643B181B78012B50
S11327303CD17B699B6A002B01D072B6FEE71F4B2C
S11327401B68002B1DD17B6904331800FEF7F3F8D6
S11327507B69DA6A1A4B1B689A4203D97B69DA6A85
S1132760174B1A607B69DA6A13009B009B189B0065
S1132770144A9A187B69043319001000FEF783F891
S113278007E07B6918331A000F4B11001800FEF79D
S11327907AF87B69DA6A0D4B1B68DB6A9A4205D9C1
S11327A03B68002B02D03B6801221A603B69180089
S11327B000F0F0F9C046BD4606B080BD40E1FF1F01
S11327C024E1FF1F74E0FF1F08E1FF1F70E0FF1FFB
S11327D080B584B000AF78607B68BB60BB68002BB9
S11327E002D10E4B1B6800E0BB68BB6000F0A2F98D
S11327F0BB684C229B5CDBB2022B06D1BB684C222B
S1132800002199540123FB6001E00023FB6000F0E8
S1132810A3F9FB681800BD4604B080BD70E0FF1F3B
S113282080B588B000AF786000237B61FFF722F8A1
S11328303D4B1B68002B04D100F0C9F83A4B012230
S11328401A607B68002B0DD008231A007B689B1844
S11328507B607B680722134004D07B680722934384
S113286008337B607B68002B56D07B682F4A9342E9
S113287052D82F4BBB612E4B1B68FB6104E0FB69F4
S1132880BB61FB691B68FB61FB695B687A689A4200
S113289003D9FB691B68002BF1D1FA69254B9A42D5
S11328A03AD0BB691B6808229B187B61FB691A68D4
S11328B0BB691A60FB695A687B68D31A0822520004
S11328C0934222D9FA697B68D318FB60FB695A6882
S11328D07B68D21AFB685A60FB697A685A60FB68A5
S11328E05B68BB60124B3B6102E03B691B683B6168
S11328F03B691B685B68BA689A42F6D83B691A68F8
S1132900FB681A603B69FA681A600B4B1A68FB692A
S11329105B68D21A084B1A60FEF7B8FF7B6918008F
S1132920BD4608B080BDC04654110020F72F0000FA
S1132930441100204C11002014E0FF1F80B586B024
S113294000AF78607B683B617B68002B27D008234D
S11329505B423A69D3183B613B69FB60FEF78AFF2F
S1132960FB685B68BB60104B7B6102E07B691B68A2
S11329707B617B691B685B68BA689A42F6D87B699D
S11329801A68FB681A607B69FA681A60FB685A68FF
S1132990064B1B68D218054B1A60FEF777FFC0463A
S11329A0BD4606B080BDC0464411002014E0FF1FA0
S11329B080B500AF024B1B681800BD4680BDC04601
S11329C014E0FF1F80B500AFC046BD4680BD80B592
S11329D082B000AF0D4B072293437B600C4B7A68A7
S11329E01A600B4B00225A600A4B0B4A5A60094B7F
S11329F000221A607B683B603B68074A5A603B6868
S1132A00044A1A60C046BD4602B080BD4CE1FF1FB7
S1132A10441100204C110020F82F000080B584B030
S1132A2000AFF860B9607A60FB68043BFB60FB6848
S1132A30802252041A60FB68043BFB60BA68FB689E
S1132A401A60FB68043BFB60084AFB681A60FB6879
S1132A50143BFB607A68FB681A60FB68203BFB60F0
S1132A60FB681800BD4604B080BDC046712A000052
S1132A7080B500AF034B1B68013301D072B6FEE78B
S1132A8072B6FEE718E0FF1F80B500AFC046BD4632
S1132A9080BD064A13681868203080F30988022034
S1132AA080F314883FBCAE4662B600BD70E0FF1FE1
S1132AB0C04680B500AF0D4B1A680C4BFF210904CA
S1132AC00A431A60094B1A68084BFF2109060A4396
S1132AD01A6000F09FF8064B00221A60FFF7D9FF36
S1132AE0FFF7C6FF00231800BD4680BD20ED00E0BF
S1132AF018E0FF1F80B500AF054B1A68FA239B004E
S1132B009A4201D072B6FEE7C046BD4680BDC046BB
S1132B1018E0FF1F80B500AF054B802252051A60F4
S1132B20BFF34F8FBFF36F8FC046BD4680BDC04615
S1132B3004ED00E080B500AF72B6064B1B685A1C6A
S1132B40044B1A60BFF34F8FBFF36F8FC046BD466F
S1132B5080BDC04618E0FF1F80B500AF094B1B685D
S1132B60002B01D172B6FEE7064B1B685A1E054BBB
S1132B701A60044B1B68002B00D162B6C046BD46E8
S1132B8080BDC04618E0FF1FEFF3108072B6704797
S1132B900023180080F310887047C046EFF30980C3
S1132BA00E4B1A6820381060F0C044464D46564615
S1132BB05F46F0C008B572B6FEF7CAFF62B60CBC39
S1132BC0116808681030F0C8A046A946B246BB4652
S1132BD080F309882038F0C81847C04670E0FF1F0A
S1132BE0C04680B582B000AFFFF7CEFF03007B6024
S1132BF0FEF7F8FE031E03D0054B802252051A602F
S1132C007B681800FFF7C6FFC046BD4602B080BD12
S1132C1004ED00E080B500AF044B054A1A60054B93
S1132C2007221A60C046BD4680BDC04614E000E0DD
S1132C307FBB000010E000E080B500AF494A882364
S1132C405B010021D150474A474BD3584549474A75
S1132C501343454A8B50464B1A68454B8021090261
S1132C600A431A60424B1A68414B80218A431A6016
S1132C70404B0022DA613F4B00221A623D4B002296
S1132C809A623C4B0022DA623A4B00225A65394B75
S1132C9000229A65374B0022DA65374B00225A64CA
S1132CA0354B00229A64354B00221A60344B0022C3
S1132CB01A61334B00225A612D4B324A1A602C4B55
S1132CC000225A602A4B00229A60294B2E4A1A612C
S1132CD0274B2E4A5A61264BC02212039A61244B79
S1132CE02B4ADA61224B00221A62214B00225A62DB
S1132CF01F4B00229A621E4B0022DA621C4B254AAB
S1132D001A631B4B00225A63194B00229A63184B17
S1132D100022DA63164B00221A64154B00225A640F
S1132D20134B11229A64124B0022DA64104B0022D6
S1132D301A650F4B22225A650D4B00229A650C4BE3
S1132D400022DA650A4B1A68094B13490A401A60D3
S1132D50074B1A68064B80210A431A60C046BD46D9
S1132D6080BDC0460070044038100000003C0800DC
S1132D700030054000A0044000B0044000C00440FE
S1132D8000D004406384B000800D0E006001300068
S1132D900001100000008844FF7FFFFF80B582B06F
S1132DA000AF0200FB1D1A70BB1D0A1C1A70BB1D6C
S1132DB01B78042B03D9012000F0B0FA9CE1FB1D21
S1132DC01B780F2B00D994E19A00CD4BD3181B68C4
S1132DD09F46CC49BB1D1B78013B5B00CA4AD35CB0
S1132DE02022CB189B18BB221A70C649BB1D1B7826
S1132DF05B00013BC44AD35C2022CB189B18EE2213
S1132E001A7079E1BF49BB1D1B78013B5B00BE4AC8
S1132E10D35C2022CB189B1800221A70B949BB1D21
S1132E201B785B00013BB84AD35C2022CB189B186B
S1132E3066221A7060E1B349BB1D1B78013B5B003D
S1132E40B14AD35C2022CB189B1877221A70AD4963
S1132E50BB1D1B785B00013BAB4AD35C2022CB1823
S1132E609B18CC221A7047E1A649BB1D1B78013B75
S1132E705B00A54AD35C2022CB189B1855221A70FC
S1132E80A049BB1D1B785B00013B9F4AD35C2022F9
S1132E90CB189B18EE221A702EE19A49BB1D1B78A1
S1132EA0013B5B00984AD35C2022CB189B18CC22B0
S1132EB01A709449BB1D1B785B00013B924AD35C9A
S1132EC02022CB189B1866221A7015E18D49BB1D70
S1132ED01B78013B5B008C4AD35C2022CB189B18E7
S1132EE0DD221A708749BB1D1B785B00013B864AB3
S1132EF0D35C2022CB189B18AA221A70FCE08149CB
S1132F00BB1D1B78013B5B007F4AD35C2022CB189E
S1132F109B18FF221A707B49BB1D1B785B00013B89
S1132F20794AD35C2022CB189B18AA221A70E3E0BA
S1132F307449BB1D1B78013B5B00734AD35C2022A0
S1132F40CB189B1800221A706E49BB1D1B785B00BE
S1132F50013B6D4AD35C2022CB189B18EE221A70D9
S1132F60CAE06849BB1D1B78013B5B00664AD35C21
S1132F702022CB189B18FF221A706249BB1D1B78B4
S1132F805B00013B604AD35C2022CB189B18EE22E5
S1132F901A70B1E05B49BB1D1B78013B5B005A4AC8
S1132FA0D35C2022CB189B18CC221A705549BB1D28
S1132FB01B785B00013B544AD35C2022CB189B183E
S1132FC0EE221A7098E04F49BB1D1B78013B5B0051
S1132FD04D4AD35C2022CB189B18EE221A70494923
S1132FE0BB1D1B785B00013B474AD35C2022CB18F6
S1132FF09B18EE221A707FE04249BB1D1B78013BEF
S11330005B00414AD35C2022CB189B18FF221A7024
S11330103C49BB1D1B785B00013B3B4AD35C20222F
S1133020CB189B1822221A7066E03649BB1D1B7808
S1133030013B5B00344AD35C2022CB189B18BB2293
S11330401A703049BB1D1B785B00013B2E4AD35CD0
S11330502022CB189B1888221A704DE02949BB1DE9
S11330601B78013B5B00284AD35C2022CB189B18B9
S113307077221A702349BB1D1B785B00013B224A4F
S1133080D35C2022CB189B1866221A7034E01D49A9
S1133090BB1D1B78013B5B001B4AD35C2022CB1871
S11330A09B18FF221A701749BB1D1B785B00013B5C
S11330B0154AD35C2022CB189B1888221A701BE077
S11330C01049BB1D1B78013B5B000F4AD35C2022D7
S11330D0CB189B18EE221A700A49BB1D1B785B00A3
S11330E0013B094AD35C2022CB189B1888221A7012
S11330F002E0012000F012F9BD4602B080BDC046D6
S113310020360000003005401836000090B583B02A
S113311000AF0200BB1D1A80BB1D1B88354A9342B9
S113312003D9102000F0FAF85FE0BB1D1B88FA22D7
S113313092001100180000F029F90300DBB201210C
S11331401800FFF72BFEBB1D1C88BB1D1B88FA2231
S113315092001100180000F019F9020013009B05F9
S11331609B1A9B019B185B009B18DB00E3186421EE
S1133170180000F00BF90300DBB202211800FFF77E
S11331800DFEBB1D1C88BB1D1B886421180000F0AC
S1133190FDF8020013005B069B1A9B009B18DB00E2
S11331A09B1A9B00E3180A21180000F0EFF80300B3
S11331B0DBB203211800FFF7F1FDBB1D1B88DCB255
S11331C0BB1D1B880A21180000F0E0F80300DBB2E5
S11331D01A1C5201D21A9200D31ADB18DBB2E3187C
S11331E0DBB204211800FFF7D9FDC046BD4603B089
S11331F090BDC0460F27000080B582B000AF02002A
S1133200BB1D1A80BB1D1B881B0B9BB2DBB20121AB
S11332101800FFF7C3FDBB1D1B881B12DBB20F2276
S11332201340DBB202211800FFF7B8FDBB1D1B8859
S11332301B11DBB20F221340DBB203211800FFF78E
S1133240ADFDBB1D1B88DBB20F221340DBB2042192
S11332501800FFF7A3FDC046BD4602B080BD80B58F
S113326082B000AF0200FB1D1A70BB1D0A1C1A704D
S1133270FB1D1B7863229A429B415B42DAB2BB1D61
S11332801B78632199429B415B42DBB21343DBB25F
S1133290002B03D0102000F041F839E0FB1D1B780F
S11332A00A21180000F088F80300DBB2012118009D
S11332B0FFF774FDFB1D1B780A21180000F002F9CA
S11332C00B00DBB202211800FFF768FDBB1D1B7861
S11332D00A21180000F070F80300DBB20321180083
S11332E0FFF75CFDBB1D1B780A21180000F0EAF80B
S11332F00B00DBB204211800FFF750FD064A2B2314
S1133300D35CDBB2044A11210B43D9B22B23D15431
S1133310C046BD4602B080BD0030054080B582B0D5
S113332000AF0200FB1D1A70174A4523FF21D15438
S1133330154A31238821D154134A27236621D154B5
S1133340114A28230021D1540F4A55236621D15410
S11333500D4A46230021D154FB1D1B780F2B06D8A0
S1133360FB1D1B7804211800FFF718FD07E0064A2F
S11333702A230021D154044A2B230021D154C046CE
S1133380BD4602B080BDC0460030054080B584B063
S113339000AF786039600023FB6039687A68FB68A5
S11333A0521A01D40133FBE77A60FB60FB68180012
S11333B0BD4604B080BDC046002243088B4274D38E
S11333C003098B425FD3030A8B4244D3030B8B4222
S11333D028D3030C8B420DD3FF22090212BA030C2B
S11333E08B4202D31212090265D0030B8B4219D30C
S11333F000E0090AC30B8B4201D3CB03C01A52412C
S1133400830B8B4201D38B03C01A5241430B8B4273
S113341001D34B03C01A5241030B8B4201D30B035C
S1133420C01A5241C30A8B4201D3CB02C01A524183
S1133430830A8B4201D38B02C01A5241430A8B4246
S113344001D34B02C01A5241030A8B4201D30B022F
S1133450C01A5241CDD2C3098B4201D3CB01C01A49
S1133460524183098B4201D38B01C01A5241430953
S11334708B4201D34B01C01A524103098B4201D341
S11334800B01C01A5241C3088B4201D3CB00C01AAE
S1133490524183088B4201D38B00C01A5241430826
S11334A08B4201D34B00C01A5241411A00D201464B
S11334B0524110467047FFE701B5002000F006F8BE
S11334C002BDC0460029F7D076E770477047C04672
S11334D0F0B5C64600B50F2A41D903270D003E00BA
S11334E005430C0003002E402F423DD11500103D32
S11334F02D09A8462D01AC46844427681D001F6091
S113350067685F60A7689F60E7681034DF60103306
S11335106545F2D145460F230C2401352D01491987
S113352013404519144222D08C59AC5104369C1BCB
S1133530032CF9D8043B9B0801339B00ED18C918F0
S113354003231A40561E002A06D00023CC5C1A001E
S1133550EC5401339642F9D180BCB846F0BD050065
S1133560561E002AF1D1F7E70500561EEDE71A00B2
S1133570F6E7C04610B583070AD00300032102E032
S113358001330B4205D01A78002AF9D1181A10BD5C
S1133590030019680C4A0D4C8A188A4322420FD141
S11335A05968094A04338A188A43224208D159685F
S11335B0054A04338A188A432242F1D000E00133D9
S11335C01A78002AFBD1E1E7FFFEFEFE80808080AE
S11335D070726F647563746F72000000636F6E7352
S11335E0756D69646F72000049444C450000000029
S11335F020250000E6240000F4240000002500003B
S1133600082500003C2600000226000010260000C9
S11336101C260000242600002511070835260A0B65
S1133620D22D0000042E0000362E0000682E00006B
S11336309A2E0000CC2E0000FE2E0000302F000039
S1133640622F0000942F0000C62F0000F82F000006
S11336502A3000005C3000008E300000C0300000D2
S1073660F8B5C046AF
S1073664F8B5C046AB
S113366845737461206573206C6120636164656EC1
S10F367861000000F82F0000AAAAAAAA12
S9030410E8
